{
  "_format": "hh-sol-artifact-1",
  "contractName": "MyEpicNFT",
  "sourceName": "contracts/MyEpicNFT.sol",
  "abi": [
    {
      "inputs": [],
      "stateMutability": "nonpayable",
      "type": "constructor"
    },
    {
      "anonymous": false,
      "inputs": [
        {
          "indexed": true,
          "internalType": "address",
          "name": "owner",
          "type": "address"
        },
        {
          "indexed": true,
          "internalType": "address",
          "name": "approved",
          "type": "address"
        },
        {
          "indexed": true,
          "internalType": "uint256",
          "name": "tokenId",
          "type": "uint256"
        }
      ],
      "name": "Approval",
      "type": "event"
    },
    {
      "anonymous": false,
      "inputs": [
        {
          "indexed": true,
          "internalType": "address",
          "name": "owner",
          "type": "address"
        },
        {
          "indexed": true,
          "internalType": "address",
          "name": "operator",
          "type": "address"
        },
        {
          "indexed": false,
          "internalType": "bool",
          "name": "approved",
          "type": "bool"
        }
      ],
      "name": "ApprovalForAll",
      "type": "event"
    },
    {
      "anonymous": false,
      "inputs": [
        {
          "indexed": false,
          "internalType": "address",
          "name": "sender",
          "type": "address"
        },
        {
          "indexed": false,
          "internalType": "uint256",
          "name": "tokenId",
          "type": "uint256"
        }
      ],
      "name": "NewEpicNFTMinted",
      "type": "event"
    },
    {
      "anonymous": false,
      "inputs": [
        {
          "indexed": true,
          "internalType": "address",
          "name": "from",
          "type": "address"
        },
        {
          "indexed": true,
          "internalType": "address",
          "name": "to",
          "type": "address"
        },
        {
          "indexed": true,
          "internalType": "uint256",
          "name": "tokenId",
          "type": "uint256"
        }
      ],
      "name": "Transfer",
      "type": "event"
    },
    {
      "inputs": [
        {
          "internalType": "address",
          "name": "to",
          "type": "address"
        },
        {
          "internalType": "uint256",
          "name": "tokenId",
          "type": "uint256"
        }
      ],
      "name": "approve",
      "outputs": [],
      "stateMutability": "nonpayable",
      "type": "function"
    },
    {
      "inputs": [
        {
          "internalType": "address",
          "name": "owner",
          "type": "address"
        }
      ],
      "name": "balanceOf",
      "outputs": [
        {
          "internalType": "uint256",
          "name": "",
          "type": "uint256"
        }
      ],
      "stateMutability": "view",
      "type": "function"
    },
    {
      "inputs": [
        {
          "internalType": "uint256",
          "name": "tokenId",
          "type": "uint256"
        }
      ],
      "name": "getApproved",
      "outputs": [
        {
          "internalType": "address",
          "name": "",
          "type": "address"
        }
      ],
      "stateMutability": "view",
      "type": "function"
    },
    {
      "inputs": [],
      "name": "getTotalMints",
      "outputs": [
        {
          "internalType": "string",
          "name": "",
          "type": "string"
        }
      ],
      "stateMutability": "nonpayable",
      "type": "function"
    },
    {
      "inputs": [
        {
          "internalType": "address",
          "name": "owner",
          "type": "address"
        },
        {
          "internalType": "address",
          "name": "operator",
          "type": "address"
        }
      ],
      "name": "isApprovedForAll",
      "outputs": [
        {
          "internalType": "bool",
          "name": "",
          "type": "bool"
        }
      ],
      "stateMutability": "view",
      "type": "function"
    },
    {
      "inputs": [],
      "name": "makeAnEpicNFT",
      "outputs": [],
      "stateMutability": "nonpayable",
      "type": "function"
    },
    {
      "inputs": [],
      "name": "mintLimit",
      "outputs": [
        {
          "internalType": "uint256",
          "name": "",
          "type": "uint256"
        }
      ],
      "stateMutability": "view",
      "type": "function"
    },
    {
      "inputs": [],
      "name": "name",
      "outputs": [
        {
          "internalType": "string",
          "name": "",
          "type": "string"
        }
      ],
      "stateMutability": "view",
      "type": "function"
    },
    {
      "inputs": [
        {
          "internalType": "uint256",
          "name": "tokenId",
          "type": "uint256"
        }
      ],
      "name": "ownerOf",
      "outputs": [
        {
          "internalType": "address",
          "name": "",
          "type": "address"
        }
      ],
      "stateMutability": "view",
      "type": "function"
    },
    {
      "inputs": [
        {
          "internalType": "uint256",
          "name": "tokenId",
          "type": "uint256"
        }
      ],
      "name": "pickRandomColor",
      "outputs": [
        {
          "internalType": "string",
          "name": "",
          "type": "string"
        }
      ],
      "stateMutability": "view",
      "type": "function"
    },
    {
      "inputs": [
        {
          "internalType": "uint256",
          "name": "tokenId",
          "type": "uint256"
        }
      ],
      "name": "pickRandomFirstWord",
      "outputs": [
        {
          "internalType": "string",
          "name": "",
          "type": "string"
        }
      ],
      "stateMutability": "view",
      "type": "function"
    },
    {
      "inputs": [
        {
          "internalType": "uint256",
          "name": "tokenId",
          "type": "uint256"
        }
      ],
      "name": "pickRandomSecondWord",
      "outputs": [
        {
          "internalType": "string",
          "name": "",
          "type": "string"
        }
      ],
      "stateMutability": "view",
      "type": "function"
    },
    {
      "inputs": [
        {
          "internalType": "uint256",
          "name": "tokenId",
          "type": "uint256"
        }
      ],
      "name": "pickRandomThirdWord",
      "outputs": [
        {
          "internalType": "string",
          "name": "",
          "type": "string"
        }
      ],
      "stateMutability": "view",
      "type": "function"
    },
    {
      "inputs": [
        {
          "internalType": "address",
          "name": "from",
          "type": "address"
        },
        {
          "internalType": "address",
          "name": "to",
          "type": "address"
        },
        {
          "internalType": "uint256",
          "name": "tokenId",
          "type": "uint256"
        }
      ],
      "name": "safeTransferFrom",
      "outputs": [],
      "stateMutability": "nonpayable",
      "type": "function"
    },
    {
      "inputs": [
        {
          "internalType": "address",
          "name": "from",
          "type": "address"
        },
        {
          "internalType": "address",
          "name": "to",
          "type": "address"
        },
        {
          "internalType": "uint256",
          "name": "tokenId",
          "type": "uint256"
        },
        {
          "internalType": "bytes",
          "name": "_data",
          "type": "bytes"
        }
      ],
      "name": "safeTransferFrom",
      "outputs": [],
      "stateMutability": "nonpayable",
      "type": "function"
    },
    {
      "inputs": [
        {
          "internalType": "address",
          "name": "operator",
          "type": "address"
        },
        {
          "internalType": "bool",
          "name": "approved",
          "type": "bool"
        }
      ],
      "name": "setApprovalForAll",
      "outputs": [],
      "stateMutability": "nonpayable",
      "type": "function"
    },
    {
      "inputs": [
        {
          "internalType": "bytes4",
          "name": "interfaceId",
          "type": "bytes4"
        }
      ],
      "name": "supportsInterface",
      "outputs": [
        {
          "internalType": "bool",
          "name": "",
          "type": "bool"
        }
      ],
      "stateMutability": "view",
      "type": "function"
    },
    {
      "inputs": [],
      "name": "symbol",
      "outputs": [
        {
          "internalType": "string",
          "name": "",
          "type": "string"
        }
      ],
      "stateMutability": "view",
      "type": "function"
    },
    {
      "inputs": [
        {
          "internalType": "uint256",
          "name": "tokenId",
          "type": "uint256"
        }
      ],
      "name": "tokenURI",
      "outputs": [
        {
          "internalType": "string",
          "name": "",
          "type": "string"
        }
      ],
      "stateMutability": "view",
      "type": "function"
    },
    {
      "inputs": [
        {
          "internalType": "address",
          "name": "from",
          "type": "address"
        },
        {
          "internalType": "address",
          "name": "to",
          "type": "address"
        },
        {
          "internalType": "uint256",
          "name": "tokenId",
          "type": "uint256"
        }
      ],
      "name": "transferFrom",
      "outputs": [],
      "stateMutability": "nonpayable",
      "type": "function"
    }
  ],
  "bytecode": "0x6080604052606460075560405180610100016040528060d381526020016200472c60d39139600990805190602001906200003b9291906200085e565b50604051806080016040528060568152602001620047ff60569139600a90805190602001906200006d9291906200085e565b506040518060c001604052806040518060400160405280600781526020017f416d617a696e670000000000000000000000000000000000000000000000000081525081526020016040518060400160405280600581526020017f436c65616e00000000000000000000000000000000000000000000000000000081525081526020016040518060400160405280600581526020017f517569657400000000000000000000000000000000000000000000000000000081525081526020016040518060400160405280600481526020017f4c6f75640000000000000000000000000000000000000000000000000000000081525081526020016040518060400160405280600581526020017f46756e6e7900000000000000000000000000000000000000000000000000000081525081526020016040518060400160405280600581526020017f536d617274000000000000000000000000000000000000000000000000000000815250815250600b906006620001eb929190620008ef565b506040518060c001604052806040518060400160405280600981526020017f506f69736f6e6f7573000000000000000000000000000000000000000000000081525081526020016040518060400160405280600881526020017f536c75676769736800000000000000000000000000000000000000000000000081525081526020016040518060400160405280600381526020017f4f6c64000000000000000000000000000000000000000000000000000000000081525081526020016040518060400160405280600581526020017f477265656e00000000000000000000000000000000000000000000000000000081525081526020016040518060400160405280600481526020017f487567650000000000000000000000000000000000000000000000000000000081525081526020016040518060400160405280600481526020017f42616c6400000000000000000000000000000000000000000000000000000000815250815250600c90600662000369929190620008ef565b506040518060c001604052806040518060400160405280600581526020017f446f6e757400000000000000000000000000000000000000000000000000000081525081526020016040518060400160405280600581526020017f4d616e676100000000000000000000000000000000000000000000000000000081525081526020016040518060400160405280600981526020017f4e697368696e6f7961000000000000000000000000000000000000000000000081525081526020016040518060400160405280600481526020017f477574730000000000000000000000000000000000000000000000000000000081525081526020016040518060400160405280600681526020017f426174746572000000000000000000000000000000000000000000000000000081525081526020016040518060400160405280600581526020017f5761746572000000000000000000000000000000000000000000000000000000815250815250600d906006620004e7929190620008ef565b506040518060c001604052806040518060400160405280600781526020017f234646353733330000000000000000000000000000000000000000000000000081525081526020016040518060400160405280600781526020017f233038433241380000000000000000000000000000000000000000000000000081525081526020016040518060400160405280600781526020017f234639464633330000000000000000000000000000000000000000000000000081525081526020016040518060400160405280600781526020017f233333463046460000000000000000000000000000000000000000000000000081525081526020016040518060400160405280600781526020017f234639333346460000000000000000000000000000000000000000000000000081525081526020016040518060400160405280600581526020017f677265656e000000000000000000000000000000000000000000000000000000815250815250600e90600662000665929190620008ef565b503480156200067357600080fd5b506040518060400160405280600f81526020017f537175617265537472696e674e465400000000000000000000000000000000008152506040518060400160405280600281526020017f53510000000000000000000000000000000000000000000000000000000000008152508160009080519060200190620006f89291906200085e565b508060019080519060200190620007119291906200085e565b5050506200075f6040518060400160405280601e81526020017f54686973206973206d79204e465420636f6e74726163742e20576f61682100008152506200077c60201b6200144d1760201c565b6200077660086200081f60201b620014e61760201c565b62000b10565b6200081c8160405160240162000793919062000a24565b6040516020818303038152906040527f41304fac000000000000000000000000000000000000000000000000000000007bffffffffffffffffffffffffffffffffffffffffffffffffffffffff19166020820180517bffffffffffffffffffffffffffffffffffffffffffffffffffffffff83818316178352505050506200083560201b60201c565b50565b6001816000016000828254019250508190555050565b60008151905060006a636f6e736f6c652e6c6f679050602083016000808483855afa5050505050565b8280546200086c9062000a9a565b90600052602060002090601f016020900481019282620008905760008555620008dc565b82601f10620008ab57805160ff1916838001178555620008dc565b82800160010185558215620008dc579182015b82811115620008db578251825591602001919060010190620008be565b5b509050620008eb919062000956565b5090565b82805482825590600052602060002090810192821562000943579160200282015b8281111562000942578251829080519060200190620009319291906200085e565b509160200191906001019062000910565b5b50905062000952919062000975565b5090565b5b808211156200097157600081600090555060010162000957565b5090565b5b808211156200099957600081816200098f91906200099d565b5060010162000976565b5090565b508054620009ab9062000a9a565b6000825580601f10620009bf5750620009e0565b601f016020900490600052602060002090810190620009df919062000956565b5b50565b6000620009f08262000a48565b620009fc818562000a53565b935062000a0e81856020860162000a64565b62000a198162000aff565b840191505092915050565b6000602082019050818103600083015262000a408184620009e3565b905092915050565b600081519050919050565b600082825260208201905092915050565b60005b8381101562000a8457808201518184015260208101905062000a67565b8381111562000a94576000848401525b50505050565b6000600282049050600182168062000ab357607f821691505b6020821081141562000aca5762000ac962000ad0565b5b50919050565b7f4e487b7100000000000000000000000000000000000000000000000000000000600052602260045260246000fd5b6000601f19601f8301169050919050565b613c0c8062000b206000396000f3fe608060405234801561001057600080fd5b506004361061012c5760003560e01c806370a08231116100ad578063b88d4fde11610071578063b88d4fde14610369578063c575757a14610385578063c87b56dd146103b5578063de9d132f146103e5578063e985e9c5146103ef5761012c565b806370a08231146102b157806395d89b41146102e1578063996517cf146102ff578063a22cb4651461031d578063b187301f146103395761012c565b80632de38d68116100f45780632de38d68146101e757806342842e0e14610217578063514dc8c6146102335780636352211e146102635780636ec0dfe5146102935761012c565b806301ffc9a71461013157806306fdde0314610161578063081812fc1461017f578063095ea7b3146101af57806323b872dd146101cb575b600080fd5b61014b600480360381019061014691906126e0565b61041f565b6040516101589190613462565b60405180910390f35b610169610501565b604051610176919061347d565b60405180910390f35b61019960048036038101906101949190612732565b610593565b6040516101a691906133d2565b60405180910390f35b6101c960048036038101906101c491906126a4565b610618565b005b6101e560048036038101906101e0919061259e565b610730565b005b61020160048036038101906101fc9190612732565b610790565b60405161020e919061347d565b60405180910390f35b610231600480360381019061022c919061259e565b6108ae565b005b61024d60048036038101906102489190612732565b6108ce565b60405161025a919061347d565b60405180910390f35b61027d60048036038101906102789190612732565b6109ec565b60405161028a91906133d2565b60405180910390f35b61029b610a9e565b6040516102a8919061347d565b60405180910390f35b6102cb60048036038101906102c69190612539565b610ab7565b6040516102d891906136fd565b60405180910390f35b6102e9610b6f565b6040516102f6919061347d565b60405180910390f35b610307610c01565b60405161031491906136fd565b60405180910390f35b61033760048036038101906103329190612668565b610c07565b005b610353600480360381019061034e9190612732565b610d88565b604051610360919061347d565b60405180910390f35b610383600480360381019061037e91906125ed565b610ea6565b005b61039f600480360381019061039a9190612732565b610f08565b6040516103ac919061347d565b60405180910390f35b6103cf60048036038101906103ca9190612732565b611026565b6040516103dc919061347d565b60405180910390f35b6103ed611178565b005b61040960048036038101906104049190612562565b6113b9565b6040516104169190613462565b60405180910390f35b60007f80ac58cd000000000000000000000000000000000000000000000000000000007bffffffffffffffffffffffffffffffffffffffffffffffffffffffff1916827bffffffffffffffffffffffffffffffffffffffffffffffffffffffff191614806104ea57507f5b5e139f000000000000000000000000000000000000000000000000000000007bffffffffffffffffffffffffffffffffffffffffffffffffffffffff1916827bffffffffffffffffffffffffffffffffffffffffffffffffffffffff1916145b806104fa57506104f9826114fc565b5b9050919050565b6060600080546105109061399c565b80601f016020809104026020016040519081016040528092919081815260200182805461053c9061399c565b80156105895780601f1061055e57610100808354040283529160200191610589565b820191906000526020600020905b81548152906001019060200180831161056c57829003601f168201915b5050505050905090565b600061059e82611566565b6105dd576040517f08c379a00000000000000000000000000000000000000000000000000000000081526004016105d49061363d565b60405180910390fd5b6004600083815260200190815260200160002060009054906101000a900473ffffffffffffffffffffffffffffffffffffffff169050919050565b6000610623826109ec565b90508073ffffffffffffffffffffffffffffffffffffffff168373ffffffffffffffffffffffffffffffffffffffff161415610694576040517f08c379a000000000000000000000000000000000000000000000000000000000815260040161068b9061369d565b60405180910390fd5b8073ffffffffffffffffffffffffffffffffffffffff166106b36115d2565b73ffffffffffffffffffffffffffffffffffffffff1614806106e257506106e1816106dc6115d2565b6113b9565b5b610721576040517f08c379a00000000000000000000000000000000000000000000000000000000081526004016107189061357d565b60405180910390fd5b61072b83836115da565b505050565b61074161073b6115d2565b82611693565b610780576040517f08c379a0000000000000000000000000000000000000000000000000000000008152600401610777906136bd565b60405180910390fd5b61078b838383611771565b505050565b606060006107c46107a0846119cd565b6040516020016107b0919061336c565b604051602081830303815290604052611b7a565b9050600b80549050816107d79190613a17565b9050600b8181548110610813577f4e487b7100000000000000000000000000000000000000000000000000000000600052603260045260246000fd5b9060005260206000200180546108289061399c565b80601f01602080910402602001604051908101604052809291908181526020018280546108549061399c565b80156108a15780601f10610876576101008083540402835291602001916108a1565b820191906000526020600020905b81548152906001019060200180831161088457829003601f168201915b5050505050915050919050565b6108c983838360405180602001604052806000815250610ea6565b505050565b606060006109026108de846119cd565b6040516020016108ee91906133b0565b604051602081830303815290604052611b7a565b9050600e80549050816109159190613a17565b9050600e8181548110610951577f4e487b7100000000000000000000000000000000000000000000000000000000600052603260045260246000fd5b9060005260206000200180546109669061399c565b80601f01602080910402602001604051908101604052809291908181526020018280546109929061399c565b80156109df5780601f106109b4576101008083540402835291602001916109df565b820191906000526020600020905b8154815290600101906020018083116109c257829003601f168201915b5050505050915050919050565b6000806002600084815260200190815260200160002060009054906101000a900473ffffffffffffffffffffffffffffffffffffffff169050600073ffffffffffffffffffffffffffffffffffffffff168173ffffffffffffffffffffffffffffffffffffffff161415610a95576040517f08c379a0000000000000000000000000000000000000000000000000000000008152600401610a8c906135bd565b60405180910390fd5b80915050919050565b6060610ab2610aad6008611bad565b6119cd565b905090565b60008073ffffffffffffffffffffffffffffffffffffffff168273ffffffffffffffffffffffffffffffffffffffff161415610b28576040517f08c379a0000000000000000000000000000000000000000000000000000000008152600401610b1f9061359d565b60405180910390fd5b600360008373ffffffffffffffffffffffffffffffffffffffff1673ffffffffffffffffffffffffffffffffffffffff168152602001908152602001600020549050919050565b606060018054610b7e9061399c565b80601f0160208091040260200160405190810160405280929190818152602001828054610baa9061399c565b8015610bf75780601f10610bcc57610100808354040283529160200191610bf7565b820191906000526020600020905b815481529060010190602001808311610bda57829003601f168201915b5050505050905090565b60075481565b610c0f6115d2565b73ffffffffffffffffffffffffffffffffffffffff168273ffffffffffffffffffffffffffffffffffffffff161415610c7d576040517f08c379a0000000000000000000000000000000000000000000000000000000008152600401610c749061353d565b60405180910390fd5b8060056000610c8a6115d2565b73ffffffffffffffffffffffffffffffffffffffff1673ffffffffffffffffffffffffffffffffffffffff16815260200190815260200160002060008473ffffffffffffffffffffffffffffffffffffffff1673ffffffffffffffffffffffffffffffffffffffff16815260200190815260200160002060006101000a81548160ff0219169083151502179055508173ffffffffffffffffffffffffffffffffffffffff16610d376115d2565b73ffffffffffffffffffffffffffffffffffffffff167f17307eab39ab6107e8899845ad3d59bd9653f200f220920489ca2b5937696c3183604051610d7c9190613462565b60405180910390a35050565b60606000610dbc610d98846119cd565b604051602001610da891906132ed565b604051602081830303815290604052611b7a565b9050600c8054905081610dcf9190613a17565b9050600c8181548110610e0b577f4e487b7100000000000000000000000000000000000000000000000000000000600052603260045260246000fd5b906000526020600020018054610e209061399c565b80601f0160208091040260200160405190810160405280929190818152602001828054610e4c9061399c565b8015610e995780601f10610e6e57610100808354040283529160200191610e99565b820191906000526020600020905b815481529060010190602001808311610e7c57829003601f168201915b5050505050915050919050565b610eb7610eb16115d2565b83611693565b610ef6576040517f08c379a0000000000000000000000000000000000000000000000000000000008152600401610eed906136bd565b60405180910390fd5b610f0284848484611bbb565b50505050565b60606000610f3c610f18846119cd565b604051602001610f2891906132cb565b604051602081830303815290604052611b7a565b9050600d8054905081610f4f9190613a17565b9050600d8181548110610f8b577f4e487b7100000000000000000000000000000000000000000000000000000000600052603260045260246000fd5b906000526020600020018054610fa09061399c565b80601f0160208091040260200160405190810160405280929190818152602001828054610fcc9061399c565b80156110195780601f10610fee57610100808354040283529160200191611019565b820191906000526020600020905b815481529060010190602001808311610ffc57829003601f168201915b5050505050915050919050565b606061103182611566565b611070576040517f08c379a00000000000000000000000000000000000000000000000000000000081526004016110679061361d565b60405180910390fd5b60006006600084815260200190815260200160002080546110909061399c565b80601f01602080910402602001604051908101604052809291908181526020018280546110bc9061399c565b80156111095780601f106110de57610100808354040283529160200191611109565b820191906000526020600020905b8154815290600101906020018083116110ec57829003601f168201915b50505050509050600061111a611c17565b9050600081511415611130578192505050611173565b60008251111561116557808260405160200161114d92919061322d565b60405160208183030381529060405292505050611173565b61116e84611c2e565b925050505b919050565b60006111846008611bad565b90506007548111156111cb576040517f08c379a00000000000000000000000000000000000000000000000000000000081526004016111c2906136dd565b60405180910390fd5b60006111d682610790565b905060006111e383610d88565b905060006111f084610f08565b9050600083838360405160200161120993929190613251565b60405160208183030381529060405290506000611225866108ce565b90506000600982600a856040516020016112429493929190613282565b60405160208183030381529060405290506000611289848461126385611cd5565b6040516020016112759392919061330f565b604051602081830303815290604052611cd5565b905060008160405160200161129e919061338e565b60405160208183030381529060405290506112ed6040518060400160405280601581526020017f0a2d2d2d2d2d2d2d2d2d2d2d2d2d2d2d2d2d2d2d2d000000000000000000000081525061144d565b6112f68161144d565b6113346040518060400160405280601581526020017f2d2d2d2d2d2d2d2d2d2d2d2d2d2d2d2d2d2d2d2d0a000000000000000000000081525061144d565b61133e338a611e93565b6113488982611eb1565b61136b604051806060016040528060258152602001613b72602591398a33611f25565b61137560086114e6565b7febb98688741ffa4c7589bf325de30cf7becb63de567842e1ccdb6cb949fdc82c338a6040516113a6929190613439565b60405180910390a1505050505050505050565b6000600560008473ffffffffffffffffffffffffffffffffffffffff1673ffffffffffffffffffffffffffffffffffffffff16815260200190815260200160002060008373ffffffffffffffffffffffffffffffffffffffff1673ffffffffffffffffffffffffffffffffffffffff16815260200190815260200160002060009054906101000a900460ff16905092915050565b6114e381604051602401611461919061347d565b6040516020818303038152906040527f41304fac000000000000000000000000000000000000000000000000000000007bffffffffffffffffffffffffffffffffffffffffffffffffffffffff19166020820180517bffffffffffffffffffffffffffffffffffffffffffffffffffffffff8381831617835250505050611fc4565b50565b6001816000016000828254019250508190555050565b60007f01ffc9a7000000000000000000000000000000000000000000000000000000007bffffffffffffffffffffffffffffffffffffffffffffffffffffffff1916827bffffffffffffffffffffffffffffffffffffffffffffffffffffffff1916149050919050565b60008073ffffffffffffffffffffffffffffffffffffffff166002600084815260200190815260200160002060009054906101000a900473ffffffffffffffffffffffffffffffffffffffff1673ffffffffffffffffffffffffffffffffffffffff1614159050919050565b600033905090565b816004600083815260200190815260200160002060006101000a81548173ffffffffffffffffffffffffffffffffffffffff021916908373ffffffffffffffffffffffffffffffffffffffff160217905550808273ffffffffffffffffffffffffffffffffffffffff1661164d836109ec565b73ffffffffffffffffffffffffffffffffffffffff167f8c5be1e5ebec7d5bd14f71427d1e84f3dd0314c0f7b2291e5b200ac8c7c3b92560405160405180910390a45050565b600061169e82611566565b6116dd576040517f08c379a00000000000000000000000000000000000000000000000000000000081526004016116d49061355d565b60405180910390fd5b60006116e8836109ec565b90508073ffffffffffffffffffffffffffffffffffffffff168473ffffffffffffffffffffffffffffffffffffffff16148061175757508373ffffffffffffffffffffffffffffffffffffffff1661173f84610593565b73ffffffffffffffffffffffffffffffffffffffff16145b80611768575061176781856113b9565b5b91505092915050565b8273ffffffffffffffffffffffffffffffffffffffff16611791826109ec565b73ffffffffffffffffffffffffffffffffffffffff16146117e7576040517f08c379a00000000000000000000000000000000000000000000000000000000081526004016117de9061365d565b60405180910390fd5b600073ffffffffffffffffffffffffffffffffffffffff168273ffffffffffffffffffffffffffffffffffffffff161415611857576040517f08c379a000000000000000000000000000000000000000000000000000000000815260040161184e9061351d565b60405180910390fd5b611862838383611fed565b61186d6000826115da565b6001600360008573ffffffffffffffffffffffffffffffffffffffff1673ffffffffffffffffffffffffffffffffffffffff16815260200190815260200160002060008282546118bd91906138b2565b925050819055506001600360008473ffffffffffffffffffffffffffffffffffffffff1673ffffffffffffffffffffffffffffffffffffffff168152602001908152602001600020600082825461191491906137d1565b92505081905550816002600083815260200190815260200160002060006101000a81548173ffffffffffffffffffffffffffffffffffffffff021916908373ffffffffffffffffffffffffffffffffffffffff160217905550808273ffffffffffffffffffffffffffffffffffffffff168473ffffffffffffffffffffffffffffffffffffffff167fddf252ad1be2c89b69c2b068fc378daa952ba7f163c4a11628f55a4df523b3ef60405160405180910390a4505050565b60606000821415611a15576040518060400160405280600181526020017f30000000000000000000000000000000000000000000000000000000000000008152509050611b75565b600082905060005b60008214611a47578080611a30906139ce565b915050600a82611a409190613827565b9150611a1d565b60008167ffffffffffffffff811115611a89577f4e487b7100000000000000000000000000000000000000000000000000000000600052604160045260246000fd5b6040519080825280601f01601f191660200182016040528015611abb5781602001600182028036833780820191505090505b5090505b60008514611b6e57600182611ad491906138b2565b9150600a85611ae39190613a17565b6030611aef91906137d1565b60f81b818381518110611b2b577f4e487b7100000000000000000000000000000000000000000000000000000000600052603260045260246000fd5b60200101907effffffffffffffffffffffffffffffffffffffffffffffffffffffffffffff1916908160001a905350600a85611b679190613827565b9450611abf565b8093505050505b919050565b600081604051602001611b8d9190613216565b6040516020818303038152906040528051906020012060001c9050919050565b600081600001549050919050565b611bc6848484611771565b611bd284848484611ff2565b611c11576040517f08c379a0000000000000000000000000000000000000000000000000000000008152600401611c08906134dd565b60405180910390fd5b50505050565b606060405180602001604052806000815250905090565b6060611c3982611566565b611c78576040517f08c379a0000000000000000000000000000000000000000000000000000000008152600401611c6f9061367d565b60405180910390fd5b6000611c82611c17565b90506000815111611ca25760405180602001604052806000815250611ccd565b80611cac846119cd565b604051602001611cbd92919061322d565b6040516020818303038152906040525b915050919050565b60606000825190506000811415611cfe5760405180602001604052806000815250915050611e8e565b60006003600283611d0f91906137d1565b611d199190613827565b6004611d259190613858565b90506000602082611d3691906137d1565b67ffffffffffffffff811115611d75577f4e487b7100000000000000000000000000000000000000000000000000000000600052604160045260246000fd5b6040519080825280601f01601f191660200182016040528015611da75781602001600182028036833780820191505090505b5090506000604051806060016040528060408152602001613b97604091399050600181016020830160005b86811015611e4b5760038101905062ffffff818a015116603f8160121c168401518060081b905060ff603f83600c1c1686015116810190508060081b905060ff603f8360061c1686015116810190508060081b905060ff603f831686015116810190508060e01b90508084526004840193505050611dd2565b506003860660018114611e655760028114611e7557611e80565b613d3d60f01b6002830352611e80565b603d60f81b60018303525b508484525050819450505050505b919050565b611ead828260405180602001604052806000815250612189565b5050565b611eba82611566565b611ef9576040517f08c379a0000000000000000000000000000000000000000000000000000000008152600401611ef0906135dd565b60405180910390fd5b80600660008481526020019081526020016000209080519060200190611f209291906123c5565b505050565b611fbf838383604051602401611f3d9392919061349f565b6040516020818303038152906040527fe3849f79000000000000000000000000000000000000000000000000000000007bffffffffffffffffffffffffffffffffffffffffffffffffffffffff19166020820180517bffffffffffffffffffffffffffffffffffffffffffffffffffffffff8381831617835250505050611fc4565b505050565b60008151905060006a636f6e736f6c652e6c6f679050602083016000808483855afa5050505050565b505050565b60006120138473ffffffffffffffffffffffffffffffffffffffff166121e4565b1561217c578373ffffffffffffffffffffffffffffffffffffffff1663150b7a0261203c6115d2565b8786866040518563ffffffff1660e01b815260040161205e94939291906133ed565b602060405180830381600087803b15801561207857600080fd5b505af19250505080156120a957506040513d601f19601f820116820180604052508101906120a69190612709565b60015b61212c573d80600081146120d9576040519150601f19603f3d011682016040523d82523d6000602084013e6120de565b606091505b50600081511415612124576040517f08c379a000000000000000000000000000000000000000000000000000000000815260040161211b906134dd565b60405180910390fd5b805181602001fd5b63150b7a0260e01b7bffffffffffffffffffffffffffffffffffffffffffffffffffffffff1916817bffffffffffffffffffffffffffffffffffffffffffffffffffffffff191614915050612181565b600190505b949350505050565b61219383836121f7565b6121a06000848484611ff2565b6121df576040517f08c379a00000000000000000000000000000000000000000000000000000000081526004016121d6906134dd565b60405180910390fd5b505050565b600080823b905060008111915050919050565b600073ffffffffffffffffffffffffffffffffffffffff168273ffffffffffffffffffffffffffffffffffffffff161415612267576040517f08c379a000000000000000000000000000000000000000000000000000000000815260040161225e906135fd565b60405180910390fd5b61227081611566565b156122b0576040517f08c379a00000000000000000000000000000000000000000000000000000000081526004016122a7906134fd565b60405180910390fd5b6122bc60008383611fed565b6001600360008473ffffffffffffffffffffffffffffffffffffffff1673ffffffffffffffffffffffffffffffffffffffff168152602001908152602001600020600082825461230c91906137d1565b92505081905550816002600083815260200190815260200160002060006101000a81548173ffffffffffffffffffffffffffffffffffffffff021916908373ffffffffffffffffffffffffffffffffffffffff160217905550808273ffffffffffffffffffffffffffffffffffffffff16600073ffffffffffffffffffffffffffffffffffffffff167fddf252ad1be2c89b69c2b068fc378daa952ba7f163c4a11628f55a4df523b3ef60405160405180910390a45050565b8280546123d19061399c565b90600052602060002090601f0160209004810192826123f3576000855561243a565b82601f1061240c57805160ff191683800117855561243a565b8280016001018555821561243a579182015b8281111561243957825182559160200191906001019061241e565b5b509050612447919061244b565b5090565b5b8082111561246457600081600090555060010161244c565b5090565b600061247b61247684613749565b613718565b90508281526020810184848401111561249357600080fd5b61249e84828561395a565b509392505050565b6000813590506124b581613b15565b92915050565b6000813590506124ca81613b2c565b92915050565b6000813590506124df81613b43565b92915050565b6000815190506124f481613b43565b92915050565b600082601f83011261250b57600080fd5b813561251b848260208601612468565b91505092915050565b60008135905061253381613b5a565b92915050565b60006020828403121561254b57600080fd5b6000612559848285016124a6565b91505092915050565b6000806040838503121561257557600080fd5b6000612583858286016124a6565b9250506020612594858286016124a6565b9150509250929050565b6000806000606084860312156125b357600080fd5b60006125c1868287016124a6565b93505060206125d2868287016124a6565b92505060406125e386828701612524565b9150509250925092565b6000806000806080858703121561260357600080fd5b6000612611878288016124a6565b9450506020612622878288016124a6565b935050604061263387828801612524565b925050606085013567ffffffffffffffff81111561265057600080fd5b61265c878288016124fa565b91505092959194509250565b6000806040838503121561267b57600080fd5b6000612689858286016124a6565b925050602061269a858286016124bb565b9150509250929050565b600080604083850312156126b757600080fd5b60006126c5858286016124a6565b92505060206126d685828601612524565b9150509250929050565b6000602082840312156126f257600080fd5b6000612700848285016124d0565b91505092915050565b60006020828403121561271b57600080fd5b6000612729848285016124e5565b91505092915050565b60006020828403121561274457600080fd5b600061275284828501612524565b91505092915050565b612764816138e6565b82525050565b612773816138f8565b82525050565b60006127848261378e565b61278e81856137a4565b935061279e818560208601613969565b6127a781613b04565b840191505092915050565b60006127bd82613799565b6127c781856137b5565b93506127d7818560208601613969565b6127e081613b04565b840191505092915050565b60006127f682613799565b61280081856137c6565b9350612810818560208601613969565b80840191505092915050565b600081546128298161399c565b61283381866137c6565b9450600182166000811461284e576001811461285f57612892565b60ff19831686528186019350612892565b61286885613779565b60005b8381101561288a5781548189015260018201915060208101905061286b565b838801955050505b50505092915050565b60006128a86032836137b5565b91507f4552433732313a207472616e7366657220746f206e6f6e20455243373231526560008301527f63656976657220696d706c656d656e74657200000000000000000000000000006020830152604082019050919050565b600061290e601c836137b5565b91507f4552433732313a20746f6b656e20616c7265616479206d696e746564000000006000830152602082019050919050565b600061294e600a836137c6565b91507f54484952445f574f5244000000000000000000000000000000000000000000006000830152600a82019050919050565b600061298e600d836137c6565b91507f222c2022636f6c6f72223a2022000000000000000000000000000000000000006000830152600d82019050919050565b60006129ce6024836137b5565b91507f4552433732313a207472616e7366657220746f20746865207a65726f2061646460008301527f72657373000000000000000000000000000000000000000000000000000000006020830152604082019050919050565b6000612a346019836137b5565b91507f4552433732313a20617070726f766520746f2063616c6c6572000000000000006000830152602082019050919050565b6000612a746063836137c6565b91507f222c20226465736372697074696f6e223a20224120686967686c79206163636c60008301527f61696d656420636f6c6c656374696f6e206f6620737175617265732e222c202260208301527f696d616765223a2022646174613a696d6167652f7376672b786d6c3b6261736560408301527f36342c00000000000000000000000000000000000000000000000000000000006060830152606382019050919050565b6000612b26600b836137c6565b91507f5345434f4e445f574f52440000000000000000000000000000000000000000006000830152600b82019050919050565b6000612b66602c836137b5565b91507f4552433732313a206f70657261746f7220717565727920666f72206e6f6e657860008301527f697374656e7420746f6b656e00000000000000000000000000000000000000006020830152604082019050919050565b6000612bcc600d836137c6565b91507f3c2f746578743e3c2f7376673e000000000000000000000000000000000000006000830152600d82019050919050565b6000612c0c6038836137b5565b91507f4552433732313a20617070726f76652063616c6c6572206973206e6f74206f7760008301527f6e6572206e6f7220617070726f76656420666f7220616c6c00000000000000006020830152604082019050919050565b6000612c72602a836137b5565b91507f4552433732313a2062616c616e636520717565727920666f7220746865207a6560008301527f726f2061646472657373000000000000000000000000000000000000000000006020830152604082019050919050565b6000612cd86029836137b5565b91507f4552433732313a206f776e657220717565727920666f72206e6f6e657869737460008301527f656e7420746f6b656e00000000000000000000000000000000000000000000006020830152604082019050919050565b6000612d3e602e836137b5565b91507f45524337323155524953746f726167653a2055524920736574206f66206e6f6e60008301527f6578697374656e7420746f6b656e0000000000000000000000000000000000006020830152604082019050919050565b6000612da46002836137c6565b91507f227d0000000000000000000000000000000000000000000000000000000000006000830152600282019050919050565b6000612de46020836137b5565b91507f4552433732313a206d696e7420746f20746865207a65726f20616464726573736000830152602082019050919050565b6000612e246031836137b5565b91507f45524337323155524953746f726167653a2055524920717565727920666f722060008301527f6e6f6e6578697374656e7420746f6b656e0000000000000000000000000000006020830152604082019050919050565b6000612e8a602c836137b5565b91507f4552433732313a20617070726f76656420717565727920666f72206e6f6e657860008301527f697374656e7420746f6b656e00000000000000000000000000000000000000006020830152604082019050919050565b6000612ef06029836137b5565b91507f4552433732313a207472616e73666572206f6620746f6b656e2074686174206960008301527f73206e6f74206f776e00000000000000000000000000000000000000000000006020830152604082019050919050565b6000612f56602f836137b5565b91507f4552433732314d657461646174613a2055524920717565727920666f72206e6f60008301527f6e6578697374656e7420746f6b656e00000000000000000000000000000000006020830152604082019050919050565b6000612fbc600a836137c6565b91507f7b226e616d65223a2022000000000000000000000000000000000000000000006000830152600a82019050919050565b6000612ffc6021836137b5565b91507f4552433732313a20617070726f76616c20746f2063757272656e74206f776e6560008301527f72000000000000000000000000000000000000000000000000000000000000006020830152604082019050919050565b6000613062600a836137c6565b91507f46495253545f574f5244000000000000000000000000000000000000000000006000830152600a82019050919050565b60006130a2601d836137c6565b91507f646174613a6170706c69636174696f6e2f6a736f6e3b6261736536342c0000006000830152601d82019050919050565b60006130e26031836137b5565b91507f4552433732313a207472616e736665722063616c6c6572206973206e6f74206f60008301527f776e6572206e6f7220617070726f7665640000000000000000000000000000006020830152604082019050919050565b60006131486005836137c6565b91507f434f4c4f520000000000000000000000000000000000000000000000000000006000830152600582019050919050565b60006131886045836137b5565b91507f546865206d6178696d756d206e756d626572206f6620746f6b656e732068617660008301527f65206265656e206d696e7465642e20426574746572206c75636b206e6578742060208301527f74696d65210000000000000000000000000000000000000000000000000000006040830152606082019050919050565b61321081613950565b82525050565b600061322282846127eb565b915081905092915050565b600061323982856127eb565b915061324582846127eb565b91508190509392505050565b600061325d82866127eb565b915061326982856127eb565b915061327582846127eb565b9150819050949350505050565b600061328e828761281c565b915061329a82866127eb565b91506132a6828561281c565b91506132b282846127eb565b91506132bd82612bbf565b915081905095945050505050565b60006132d682612941565b91506132e282846127eb565b915081905092915050565b60006132f882612b19565b915061330482846127eb565b915081905092915050565b600061331a82612faf565b915061332682866127eb565b915061333182612981565b915061333d82856127eb565b915061334882612a67565b915061335482846127eb565b915061335f82612d97565b9150819050949350505050565b600061337782613055565b915061338382846127eb565b915081905092915050565b600061339982613095565b91506133a582846127eb565b915081905092915050565b60006133bb8261313b565b91506133c782846127eb565b915081905092915050565b60006020820190506133e7600083018461275b565b92915050565b6000608082019050613402600083018761275b565b61340f602083018661275b565b61341c6040830185613207565b818103606083015261342e8184612779565b905095945050505050565b600060408201905061344e600083018561275b565b61345b6020830184613207565b9392505050565b6000602082019050613477600083018461276a565b92915050565b6000602082019050818103600083015261349781846127b2565b905092915050565b600060608201905081810360008301526134b981866127b2565b90506134c86020830185613207565b6134d5604083018461275b565b949350505050565b600060208201905081810360008301526134f68161289b565b9050919050565b6000602082019050818103600083015261351681612901565b9050919050565b60006020820190508181036000830152613536816129c1565b9050919050565b6000602082019050818103600083015261355681612a27565b9050919050565b6000602082019050818103600083015261357681612b59565b9050919050565b6000602082019050818103600083015261359681612bff565b9050919050565b600060208201905081810360008301526135b681612c65565b9050919050565b600060208201905081810360008301526135d681612ccb565b9050919050565b600060208201905081810360008301526135f681612d31565b9050919050565b6000602082019050818103600083015261361681612dd7565b9050919050565b6000602082019050818103600083015261363681612e17565b9050919050565b6000602082019050818103600083015261365681612e7d565b9050919050565b6000602082019050818103600083015261367681612ee3565b9050919050565b6000602082019050818103600083015261369681612f49565b9050919050565b600060208201905081810360008301526136b681612fef565b9050919050565b600060208201905081810360008301526136d6816130d5565b9050919050565b600060208201905081810360008301526136f68161317b565b9050919050565b60006020820190506137126000830184613207565b92915050565b6000604051905081810181811067ffffffffffffffff8211171561373f5761373e613ad5565b5b8060405250919050565b600067ffffffffffffffff82111561376457613763613ad5565b5b601f19601f8301169050602081019050919050565b60008190508160005260206000209050919050565b600081519050919050565b600081519050919050565b600082825260208201905092915050565b600082825260208201905092915050565b600081905092915050565b60006137dc82613950565b91506137e783613950565b9250827fffffffffffffffffffffffffffffffffffffffffffffffffffffffffffffffff0382111561381c5761381b613a48565b5b828201905092915050565b600061383282613950565b915061383d83613950565b92508261384d5761384c613a77565b5b828204905092915050565b600061386382613950565b915061386e83613950565b9250817fffffffffffffffffffffffffffffffffffffffffffffffffffffffffffffffff04831182151516156138a7576138a6613a48565b5b828202905092915050565b60006138bd82613950565b91506138c883613950565b9250828210156138db576138da613a48565b5b828203905092915050565b60006138f182613930565b9050919050565b60008115159050919050565b60007fffffffff0000000000000000000000000000000000000000000000000000000082169050919050565b600073ffffffffffffffffffffffffffffffffffffffff82169050919050565b6000819050919050565b82818337600083830152505050565b60005b8381101561398757808201518184015260208101905061396c565b83811115613996576000848401525b50505050565b600060028204905060018216806139b457607f821691505b602082108114156139c8576139c7613aa6565b5b50919050565b60006139d982613950565b91507fffffffffffffffffffffffffffffffffffffffffffffffffffffffffffffffff821415613a0c57613a0b613a48565b5b600182019050919050565b6000613a2282613950565b9150613a2d83613950565b925082613a3d57613a3c613a77565b5b828206905092915050565b7f4e487b7100000000000000000000000000000000000000000000000000000000600052601160045260246000fd5b7f4e487b7100000000000000000000000000000000000000000000000000000000600052601260045260246000fd5b7f4e487b7100000000000000000000000000000000000000000000000000000000600052602260045260246000fd5b7f4e487b7100000000000000000000000000000000000000000000000000000000600052604160045260246000fd5b6000601f19601f8301169050919050565b613b1e816138e6565b8114613b2957600080fd5b50565b613b35816138f8565b8114613b4057600080fd5b50565b613b4c81613904565b8114613b5757600080fd5b50565b613b6381613950565b8114613b6e57600080fd5b5056fe416e204e465420772f20494420257320686173206265656e206d696e74656420746f2025734142434445464748494a4b4c4d4e4f505152535455565758595a6162636465666768696a6b6c6d6e6f707172737475767778797a303132333435363738392b2fa2646970667358221220265d8fff010e42342bf97bd3bf6b979eb85e99d6a6b73a7d1992d702931c84f964736f6c634300080000333c73766720786d6c6e733d27687474703a2f2f7777772e77332e6f72672f323030302f73766727207072657365727665417370656374526174696f3d27784d696e594d696e206d656574272076696577426f783d273020302033353020333530273e3c7374796c653e2e62617365207b2066696c6c3a2077686974653b20666f6e742d66616d696c793a2073657269663b20666f6e742d73697a653a20323470783b207d3c2f7374796c653e3c726563742077696474683d273130302527206865696768743d2731303025272066696c6c3d27272f3e3c7465787420783d273530252720793d273530252720636c6173733d27626173652720646f6d696e616e742d626173656c696e653d276d6964646c652720746578742d616e63686f723d276d6964646c65273e",
  "linkReferences": {},
  "deployedLinkReferences": {}
}